:100000000C941B040C9462040C9462040C9462041F
:100010000C9462040C9462040C9462040C946204C8
:100020000C9462040C9462040C943C2B0C94102CE1
:100030000C9495250C9462040C9462040C94620454
:100040000C9462040C9462040C9462040C94620498
:100050000C9462040C94EC250C9462040C946204DD
:100060000C9462040C9462040C9462040C94620478
:100070000C9462040C9462040C9462040C94620468
:100080000C9462040C9462040C9462040C94620458
:100090000C9462040C9462040C9462040C94620448
:1000A0000C9462040C9462040C94620429006400B1
:1000B0003A003B003C003D003E003F004000410054
:1000C000420043004400450046004700480000004D
:1000D00035001E001F002000210022002300240004
:1000E0002500260027002D002E00000049004A00B0
:1000F0004B002A002B0014001A00080015001700FE
:100100001C0018000C00120013002F0030003100FA
:100110004C004D004E00000039000400160007009E
:1001200009000A000B000D000E000F003300340020
:10013000000028000000000000000000E1001D0099
:100140001B000600190005001100100036003700E2
:10015000380000000000E500000052000000000030
:10016000E000E300E200000000002C0000000000BE
:10017000E6000000E70000000151E40050005100DB
:100180004F0000000100010001000100010001001A
:100190000100010001000100010001000100010057
:1001A0000100010001000000010001000100010048
:1001B0000100010001000100010001000100010037
:1001C000010000000100010001000100BF5CC05CF3
:1001D000BE5CBD5C005C010001000100010001008B
:1001E0000100010001000100010001000100000008
:1001F000C25CC35CC55CC75CC95CCB5C0100010030
:1002000001000100010001000000010000000000E9
:10021000000000000100C45CC65CC85CCA5CCB5C2A
:1002200001000100010001000100000000000100C8
:1002300000000100000000000100010001000000BA
:1002400000000100000000000100000001000000AB
:100250000100010001000100010000000100010097
:100260000100010001000100010001000100010086
:100270000100010001000100010001000100000077
:100280000100010001000100010001000100010066
:100290000100010001000100010000000100010057
:1002A0000100010001000100010001000100010046
:1002B0000100010001000100010001000100010036
:1002C0000100010001000000010001000100010027
:1002D0000100010001000100010001000100010016
:1002E000000001000000000000000000010001000B
:1002F00001000100010001000100010001000100F6
:1003000001000000000001000000010000000000EA
:1003100001000100010000000000010000000000D9
:1003200001000000010000000100010001000100C7
:1003300001000000010001000100010001000100B6
:1003400001000100010001000100010001000100A5
:100350000100010001000000010001000100010096
:100360000100010001000100010001000100010085
:100370000100000001000100010001000100010076
:100380000100010001000100010001000100010065
:100390000100010001000100010001000100000056
:1003A0000100010001000100010001000100010045
:1003B0000100010001000100000001000000000038
:1003C0000000000001000100010001000100010027
:1003D0000100010001000100010000000000010017
:1003E0000000010000000000010001000100000009
:1003F00000000100000000000100000001000000FA
:1004000001000100010001000100000000000000E7
:10041000000000002A2B280000000000000000005F
:100420000000000000000029000000002C1E342005
:10043000212224342627252E362D3738271E1F202B
:100440002122232425263333362E37381F04050670
:100450000708090A0B0C0D0E0F10111213141516B4
:100460001718191A1B1C1D2F3130232D35040506B2
:100470000708090A0B0C0D0E0F1011121314151694
:100480001718191A1B1C1D2F3130354C00000000A5
:10049000000000000000000000000000000000005C
:1004A000000000000000000000000000000000004C
:1004B0007E0F00D4FFFFFFC7000000781E0F05006D
:1004C000047F3F1F643214643214783C1E1E140AE9
:1004D000052223252628292A2C2D2F303233353684
:1004E000383A3B3D3E4042434547494A4C4E5051C5
:1004F000535557595A5C5E6062646668696B6D6FEC
:1005000071737577797B7D7F81838587898A8C8EEE
:1005100090929496989A9C9E9FA1A3A5A7A8AAACF6
:10052000AEAFB1B3B4B6B8B9BBBCBEBFC1C2C3C530
:10053000C6C7C9CACBCCCDCED0D1D2D2D3D4D5D6D2
:10054000D7D7D8D9D9DADADBDBDBDCDCDCDCDCDD05
:10055000DDDDDDDCDCDCDCDCDBDBDBDADAD9D9D8E9
:10056000D7D7D6D5D4D3D2D2D1D0CECDCCCBCAC981
:10057000C7C6C5C3C2C1BFBEBCBBB9B8B6B4B3B1B0
:10058000AFAEACAAA8A7A5A3A19F9E9C9A9896944B
:1005900092908E8C8A89878583817F7D7B79777520
:1005A00073716F6D6B6968666462605E5C5A5957FF
:1005B000555351504E4C4A4947454342403E3D3BBE
:1005C0003A3836353332302F2D2C2A292826252348
:1005D00022FFAA7F55400001010101010101010133
:1005E00002020202020202020203030303030303E4
:1005F00003040404040404040505050505060606B1
:100600000606070707070708080808090909090A6D
:100610000A0A0B0B0B0C0C0C0D0D0D0E0E0E0F0F12
:100620000F101011111112121313141415151616A0
:100630001717181819191A1A1B1B1C1D1D1E1E1F0F
:100640002020212222232424252626272829292A5E
:100650002B2C2D2D2E2F3031323233343536373886
:10066000393A3B3C3D3E3F40414243444546474882
:10067000494A4C4D4E4F50515354555658595A5B58
:100680005D5E5F616264656668696B6C6D6F7072F8
:10069000737577787A7B7D7E8082838587888A8C64
:1006A0008E8F91939596989A9C9EA0A2A3A5A7A998
:1006B000ABADAFB1B3B5B7BABCBEC0C2C4C6C9CB8F
:1006C000CDCFD1D4D6D8DBDDDFE2E4E7E9EBEEF045
:1006D000F3F5F8FAFDFF12034F00720069006F0096
:1006E0006E0020005600330000000A03440075002D
:1006F00063006B0000000403090409025B000301AE
:1007000000A0FA0904000001030101000921110100
:1007100000012240000705810308000A09040100C6
:100720000203000000092111010001222200070537
:1007300082032000010705030320000109040200D1
:100740000103000000092111010001226D000705CD
:10075000840320000A12011001000000084B4452DB
:100760004F0200010200010660FF0961A101096258
:10077000150026FF009520750881020963150026E3
:10078000FF00952075089102C005010980A101852F
:100790000319012AB700150126B7009501751081CC
:1007A00000C0050C0901A101850419012AA0021548
:1007B0000126A002950175108100C005010906A15E
:1007C000018505050719E029E7150025019508753C
:1007D0000181020507190029EF1500250195F07523
:1007E00001810205081901290595057501910295F8
:1007F0000175039101C005010906A101050719E072
:1008000029E71500250195087501810295017508F4
:1008100081010507190029FF150026FF00950675BF
:1008200008810005081901290595057501910295B2
:100830000175039101C011241FBECFEFDAE0DEBFC6
:10084000CDBF04B603FE27C08091A5039091A603F7
:10085000A091A703B091A8038730904BA740B04B5D
:10086000D1F41092A5031092A6031092A703109240
:10087000A80314BE84B7877F84BF0FB6F894A895E9
:1008800080916000886180936000109260000FBECC
:10089000E0E0F8E3099511E0A0E0B1E0EAEAFFE565
:1008A00002C005900D92A23CB107D9F723E0A2EC5B
:1008B000B1E001C01D92A53AB207E1F70E94FA2704
:1008C0000C94342F0C94000084B1806684B985B1F7
:1008D0008F7985B987B1806C87B988B18F7388B9F2
:1008E00080B3836080BB81B38C7F81BB0895089502
:1008F0000C94770408950C947A04249A209A579AB9
:1009000008950E947D040E9464048AB1807D8AB9A2
:100910008BB1807D8BB927982F986A98729AECEDED
:10092000F1E0A4ECB1E011921192119211921D929A
:100930001D921D921D9281E0E43FF807A1F70C94EF
:1009400089062F923F924F925F926F927F928F9281
:100950009F92AF92BF92CF92DF92EF92FF920F934E
:100960001F93CF93DF9300D000D00F92CDB7DEB7A7
:1009700010E000E022242394312C302F013138F490
:10098000E02FF0E0EA5CF04D0C94262E469A20E130
:100990002A95F1F789B1C9B029B199B181704C2D6F
:1009A0004270C42EC82A2470C22A9870C92A4D9950
:1009B000BEC080E0C82A1F99BCC080E0C82A31317F
:1009C00009F0B9C06299B7C082E0C82A412C512C05
:1009D00032014394002E04C0440C551C661C771C45
:1009E0000A94D2F7809004018D8294ECE92E91E074
:1009F000F92EF70190E080E00C2C000CDD0841910D
:100A00005191619171914A015B0184209520A6204A
:100A1000B720A1E089288A288B2809F4A0E0910159
:100A2000082E02C0220F331F0A94E2F72C213D2129
:100A3000B1E0232B09F4B0E0AB1769F0DF011497A4
:100A400044255525662577254D935D936D937C93BD
:100A5000139725E02D8301968630910581F68D80D0
:100A6000809204010E9464040F5F1F4F0231110540
:100A700009F083CF882069F02D8121502093040153
:100A8000222309F45AC08FE99FE00197F1F700C0D3
:100A900000000E94950681E00F900F900F900F903C
:100AA0000F90DF91CF911F910F91FF90EF90DF900A
:100AB000CF90BF90AF909F908F907F906F905F90FE
:100AC0004F903F902F900895469A889A60CF469A0B
:100AD000899A5DCF469A81B3836081BB58CF88B134
:100AE000806C88B954CF88B1806C88B9EECF88B15A
:100AF000806C88B9EDCF88B1806C88B9ECCF2E9A24
:100B000046CF2E9AE2CF2E9AE3CF2E9AE4CF2E9A9A
:100B1000479A3DCF2E9A889AFBCF2E9A899AF8CF82
:100B20002E9A81B3836081BBF3CF2D9A30CF80E1C1
:100B300041CF80E243CF80E048CFECEDF1E08CED97
:100B400091E0D7014D915D916D917D917D01419332
:100B50005193619371938A179B0799F79ACF94E009
:100B6000899FF0011124E452FE4F608171818281DE
:100B7000938108950895CF93C82F0E94C9078823B1
:100B800049F0C1FD0AC0289AC0FD09C02C9AC2FDD7
:100B900008C05F9A81E0CF9108952898F5CF2C98EE
:100BA000F6CF5F98F7CF0C94D70581E0089581E0E8
:100BB000089508950C94D9051F93CF93DF9300D027
:100BC00000D00F92CDB7DEB749835A836B83309143
:100BD000860289819A8131111DC06623B9F02223D2
:100BE000A9F00E947F22182F682F89819A810E9484
:100BF0002B2269817A81812F0F900F900F900F9097
:100C00000F90DF91CF911F910C9418160E945722DC
:100C1000182FEFCF0E947F2269817A81EDCFFC01EE
:100C2000262F408151816281738184810C94DC057F
:100C3000CF93DF93EC0160E00E940F06BE01DF91CD
:100C4000CF910C94DA058F929F92AF92BF92CF9280
:100C5000DF92EF92FF920F931F936B017C0181E073
:100C600090E0A0E0B0E04C015D0104C0880C991C4C
:100C7000AA1CBB1C4A95D2F7B501A4014C015D0129
:100C800004C0880C991CAA1CBB1C2A95D2F74829C1
:100C900059296A297B2904C0880F991FAA1FBB1FE5
:100CA0000A95D2F78A019B010C211D212E213F219B
:100CB000041715072607370789F48C299D29AE29C3
:100CC000BF29BC01CD011F910F91FF90EF90DF90E4
:100CD000CF90BF90AF909F908F9008958095909502
:100CE000A095B0958C219D21AE21BF21EACF0F9315
:100CF000382F262F6091050370910603809107031A
:100D000090910803042F432F0E9423060F910C9407
:100D100069210E943B260E94CB23811102C00E94C0
:100D200078240E944B120C9478040C947B04089550
:100D30000E94951D0E9497062FEF84E39CE02150AE
:100D400080409040E1F700C000000C9410260F9303
:100D50001F93CF93DF93EC0161E00E940F068C019B
:100D6000BE010E94CA138823B9F1BE01C8010E94C6
:100D7000D305882389F1BE01C8010E941713882377
:100D800059F1BE01C8010E944D17882329F1BE0107
:100D9000C8010E949F178823F9F0BE01C8010E9474
:100DA000C2188823C9F0BE01C8010E94D11188234E
:100DB00099F08A81882339F001158CE5180751F0E4
:100DC0000E3D1C4579F0CE01DF91CF911F910F911F
:100DD0000C94D5050E94980680E0DF91CF911F9179
:100DE0000F9108950E947824F7CFDF92EF92FF923F
:100DF0000F931F93CF93DF93E82FF0E0E45FFB4F57
:100E0000D490282F26952695269530E0F901E455B3
:100E1000FB4F0491877010E0082E02C015950795CE
:100E20000A94E2F701701127F901E456FB4FE490B0
:100E3000F12C082E02C0F594E7940A94E2F791E0B1
:100E4000E922FF24F901E457FB4FC491D0E002C02E
:100E5000D595C7958A95E2F7C170DD270115110573
:100E600019F081EE0E94991AE114F10419F086EE4E
:100E70000E94991A8D2D0E94231BEF2819F086EEEF
:100E80000E94E41A012B19F081EE0E94E41ACD2B86
:100E900051F08CE2DF91CF911F910F91FF90EF9075
:100EA000DF900C94231BDF91CF911F910F91FF9046
:100EB000EF90DF900895EF92FF920F931F93CF93DF
:100EC000DF93EC01162F0AE08881882309F454C0CF
:100ED000813009F04EC08981813099F47E0122E091
:100EE000E20EF11C8A810E94231BE7012196812FCB
:100EF000815050F3EFE9FFE03197F1F700C00000B7
:100F0000F7CF823041F47E0182E0E80EF11C8A8145
:100F10000E94991AEACF833041F47E01E2E0EE0E9E
:100F2000F11C8A810E94E41AE0CF843011F02196EE
:100F3000DDCF2A81229690E080E0AE014F5F5F4FC7
:100F40002053330B2A30310548F0019778F2EFE94E
:100F5000FFE03197F1F700C00000F7CF089FB00124
:100F6000099F700D1124C901860F971F2981EA017D
:100F7000E4CF0E94F506BACFDF91CF911F910F9178
:100F8000FF90EF90089560E00C945B0708950C9437
:100F9000C60781E00895CF93C82F0E94C7078C2F02
:100FA000CF910C94BB0590E080E008950895FC017A
:100FB000EE0FFF1FE454FB4F859194910895CF935A
:100FC000DF930E9418160E94EB08EC01811520E5C2
:100FD000920708F041C0811530E4930708F0B4C0CF
:100FE000803E910518F5803C910508F09DC0883A37
:100FF000910570F4853A910508F08EC08130910515
:10100000F9F00097E9F00497D8F4D0E0C0E018C0F8
:101010008F3B9105D0F7C85AD0E0CC0FDD1FCB5DD8
:10102000DE4F0990D881C02DD4640AC0811590424A
:1010300058F4C11581E0D80718F4C83ED10528F747
:10104000CE01DF91CF910895C11590E3D90708F043
:1010500071C0CE019F706AC0811525E5920758F5D1
:10106000811534E5930708F09EC0811542E5940789
:1010700050F4C11581E5D80708F469C0DC2FCC27EE
:10108000C16FD06ADDCF982F969596959E012370FB
:101090003327C115D34508F077C0C1E0D0E002C0C6
:1010A000CC0FDD1F2A95E2F720E2929FC0011124A8
:1010B000C82BD92B67C0C11589E5D807A8F4C1157D
:1010C00098E5D90708F074C0C11526E5D20708F0E5
:1010D0009CCF8C2F0E948209C82FD0E0DC2FCC2718
:1010E000CC27DF71D062ACCFC1153AE5D30708F445
:1010F00064C0CE0190568115904208F086CF8D2FA6
:101100008F710E94820990E0982F882788279F710D
:101110009C012C2BE901E6CFC55AD0E0CD5ADE4F19
:10112000C881D0E0D0648CCF805C91090E94D70741
:10113000EC0186CFCE019927D3FF03C0EC01D86C18
:101140007FCFEC01D06C7CCFDF70D06A79CFCE013D
:10115000E4E096958795EA95E1F783702C2F269524
:101160002695237090E2299F90011124382B8C2F13
:101170008370C1E0D0E002C0CC0FDD1F8A95E2F79A
:10118000C22BD32BDC685CCFC1E0D0E002C0CC0F17
:10119000DD1F2A95E2F730E2939FC0011124C82B8E
:1011A000D92BDA684DCFD82FCC27C46FD06A48CF5F
:1011B000DC2FCC27C06FD06A43CF8C2F8F700E945A
:1011C000820934E0D695C7953A95E1F7CF709C2F08
:1011D000EC01D06935CF82389105B1F1B0F481339B
:1011E000910509F475C048F48932910509F469C084
:1011F0008A32910509F473C008958533910509F485
:1012000059C08933910501F10895833E9105A9F1F3
:1012100038F4803E9105F9F0823E910549F1089538
:10122000863E9105A9F1873E9105C9F1843E91055D
:1012300019F52091970321FF1FC08091960384FD2B
:1012400014C087EE90E00895209196032370A1F0DA
:1012500080EE90E008952091960320FD47C03091E4
:10126000970330FF09C024FF44C090E080E004C031
:101270002091960322FDF7CF08952091960322FD39
:101280003BC03091970330FDE3CF24FFF5CFEDCF86
:101290002091960323FFF0CF24FDE7CFD2CF2091FA
:1012A000960323FD2CC03091970331FFEECF84EEDF
:1012B00090E008952091960325FFDECF89E290E02B
:1012C00008952091960325FFD7CF85E390E00895F8
:1012D0002091960326FFD0CF8AE290E008952091D6
:1012E000960326FFC9CF81E390E0089589E390E05B
:1012F000089583EE90E0089582EE90E0089586EEE2
:1013000090E008959091960392FF06C0282F2871CF
:101310002830F9F4877F846093FF06C0282F287156
:101320002831F1F4877E84612091970320FF06C065
:10133000382F38713830D9F4877F816021FF06C09B
:10134000282F28712831D1F4877E816194FD877E12
:101350000895282F24712430F9F68B7F8860DCCF24
:10136000282F2471243101F78B7E8861DDCF382F3F
:101370003171313019F78E7F8860E0CF282F2171CD
:10138000213121F78E7E8861E1CF0F931F9341E0D9
:1013900050E060E070E08A019B0104C0000F111F63
:1013A000221F331F8A95D2F7C901B8010E942D214F
:1013B0001F910F910C94951DEBEFE80FEF3308F0A0
:1013C0005AC0F0E0E95BF04D0C94262E0E94782480
:1013D00081E0089580913203807F8093320381E021
:1013E0008093F40108950E949806F2CF9091320301
:1013F000892F8E7F90FF81608093320380FDE8CF3C
:10140000817F80933203E4CF90913203892F8D7FC7
:1014100091FF82608093320381FFDACF80913203A3
:101420008160EFCF90913203892F8B7F92FF846090
:101430008093320382FDF2CFCBCF90913203892F7C
:10144000877F93FF88608093320383FDE7CFC0CF0F
:101450000E94951D90919603892F97FB87F98058DC
:1014600080939603B5CF80E00E94C509B1CF895320
:10147000FBCF8D51F9CF80E0089580E008950C9462
:101480003D0ACF93C82F8091F401882331F0813039
:1014900099F01092F40180E00DC00E941423823272
:1014A000D1F78C2F0E943D0A811116C08C2F0E940B
:1014B000DC098170CF9108950E941423823289F350
:1014C0008C2F0E943F0A811105C0C43171F038F49D
:1014D000CB3079F781E0EDCF81E090E0EACFC932FF
:1014E00021F0C833B9F380E0E4CF1092F401FBCFD0
:1014F000EF92FF920F931F93CF93DF93EB01E82FAF
:10150000D11110C0442321F0F0E0EA52FA4FE491E7
:101510006E2F7E2F8E2FDF91CF911F910F91FF9015
:10152000EF9008950D2F10E0282F30E0442329F08C
:101530002A523A4FF901249130E0F6E0CF9FC001E2
:101540001124EFEFF0E0BF010E94DC2DAB018C2FE6
:1015500090E0880F991FA5E5A49FB001A59F700D8D
:101560001124861B970B982F990F980FBF01601BB2
:10157000710B629FD001639FB00D729FB00D11245B
:101580008B2F9D9FB0011124672F7727EF01C61B7A
:10159000D70BBE01629FE001639FD00D729FD00DFB
:1015A00011247F01E91AF108E09EB001E19E700D5F
:1015B000F09E700D1124672F7727E61BF70BE29F33
:1015C0008001E39F100DF29F100D1124E12F722F67
:1015D0004230510599F048F44115510569F0413008
:1015E000510581F0EB2F8D2F07C04430510569F074
:1015F00080F046305105B1F76E2F8DCFE22F7B2F53
:10160000812FFACFE22F7D2FF7CFEB2F822F712F73
:10161000F3CF7B2F822FED2FEFCF41E00C94780A90
:1016200008950C940D0BCF93DF93762FE901682F6B
:10163000842F0E94110B798368838A83DF91CF9175
:10164000089580915603982F9E7F29F481708260BF
:101650008093560308958635E8F381708465F8CF4A
:1016600088E090E00C94D52ECF92DF92EF92FF921B
:101670006B017C010E94210BB701A60188E090E07C
:10168000FF90EF90DF90CF900C94F32E6091560373
:101690007091570380915803909159030C94340B27
:1016A000E6E5F3E083E0808311828FEF828383831A
:1016B000148260817181828193810C94340B8091BA
:1016C000560380FF02C08695089580E008959091AA
:1016D0005A03933018F49F5F90935A03882351F074
:1016E000609156037091570380915803909159036C
:1016F0000C94340B089581E00C94670B90915A037D
:10170000992319F0915090935A03882351F06091D6
:1017100056037091570380915803909159030C948C
:10172000340B089581E00C947E0B80915A03089548
:1017300080935A03662351F06091560370915703CA
:1017400080915803909159030C94340B089560E0F4
:101750000C94980B80915703089580915803089535
:1017600080915903089570E00C944713609109012A
:101770008091560380FF0AC08091080123E0829F78
:10178000C0011124855A9C4F0C94B30B80910A011F
:1017900090910B0123E0829FF0011124E55AFC4F48
:1017A000891750F71182108212828F5F3396F8CF1B
:1017B0009091560390FF14C090910A0120910B0163
:1017C00033E0939FF0011124E55AFC4F921710F07B
:1017D0000C94B60B8183608342839F5F3396F6CF70
:1017E0000895CF93DF9300D00F92CDB7DEB79091DD
:1017F000560390FF0AC09E012F5F3F4F0E94130BBC
:101800004B8169818A810E94D80B0F900F900F90B5
:10181000DF91CF910895CF93DF93EC01EC81F0E05D
:10182000EF52FB4F4491E6E5F3E0628181810E9433
:10183000F10B8C818F5F8C83DF91CF910895CF93D3
:10184000DF93EC01E6E5F3E0438162818C810E9445
:10185000F10B8C818F5F8C83DF91CF9108950F9373
:101860001F93CF93DF9300D00F92CDB7DEB78C01DB
:101870008091F50181110AC09E012F5F3F4F4FEF0C
:101880006FEF0E94130B8A818093F501F801648148
:10189000613069F08091F50140E0662361F040E03D
:1018A000623011F44091F50180E060E004C0609185
:1018B000F50140E080E00E94D80BF801848190E0BF
:1018C000019663E070E00E94F02D84830F900F90EA
:1018D0000F90DF91CF911F910F910895AF92BF921A
:1018E000CF92DF92EF92FF920F931F93CF93DF93EC
:1018F00000D00F92CDB7DEB7182FF62E042FE22EB0
:101900009091560390FF29C0E92FE695AE2FB0E0E5
:10191000AA5ABE4F8C91809359029E7F923059F5FE
:101920009E012F5F3F4F812F0E94130B4B816981D6
:101930008A810E94D80B10935703F09258030093AA
:101940005903EE2051F06091560370915703809136
:101950005803909159030E94340B0F900F900F90F1
:10196000DF91CF911F910F91FF90EF90DF90CF907B
:10197000BF90AF900895823019F400915903DBCFE6
:10198000863019F410915703D6CF8930D9F38931B5
:1019900091F6E9518E2F8170D82EE695F0E0EF5246
:1019A000FA4FA590B490C12CBB2460910C01C616CF
:1019B00018F00E94B60BBFCF2C2D30E0A29EC001C4
:1019C000A39E900DB29E900D112470E00E94DC2D1C
:1019D000812FD11013C0860F40910A01420F532F5F
:1019E000511D9A01220F331F240F351F255A3C4FDA
:1019F000402F6F2D0E94130BC394D7CF861BECCFC3
:101A0000E6E5F3E09181282F4381628188E0890F28
:101A10000C946E0C81E00C94000DE6E5F3E09181EE
:101A2000282F4381628188EF890F0C946E0C81E02E
:101A30000C940D0DE6E5F3E0628121E1620F08F4FC
:101A40006FEF282F438181810C946E0C81E00C9400
:101A50001A0DE6E5F3E0628121E1621B08F460E023
:101A6000282F438181810C946E0C81E00C94290D08
:101A7000E6E5F3E0438121E1420F08F44FEF282F20
:101A8000628181810C946E0C81E00C94380DE6E546
:101A9000F3E0438121E1421B08F440E0282F6281FA
:101AA00081810C946E0C81E00C94470D20E00C9425
:101AB0006E0CEF92FF921F93CF93DF93EC0110E037
:101AC000EE24EA94F12C60910C01161770F00E943C
:101AD000B60B9A818C8190FF27C08F5F8C83DF913A
:101AE000CF911F91FF90EF90089520910A01422F0E
:101AF000410F5527551FCA019A01220F331F280F86
:101B0000391F255A3C4F70E0C7010E94F02D962FD7
:101B10008C814091590360915803199F800D1124C5
:101B20000E94130B1F5FCFCF8150D8CFAF92BF92CF
:101B3000CF92DF92EF92FF920F931F93CF93DF9399
:101B4000FC0182810FEF80FF01E010E042E1A42E52
:101B500080910C011817C8F00E94B60B8091F70114
:101B6000013009F055C0811102C080910C018150F3
:101B70008093F701DF91CF911F910F91FF90EF902C
:101B8000DF90CF90BF90AF900895C0910A01C12E11
:101B9000D12CCC0DDD2DD11DCE01880F991FC80F82
:101BA000D91FC55ADC4F198218821A8234E0E32EFD
:101BB000F12CB12C8091F7018B0D83311CF16A2D32
:101BC0000E94CE2D892F082E000C990BC816D9061D
:101BD00091F4809159038E9DA0018F9D500D112489
:101BE00055954795559547959E016091580380916D
:101BF00057030E94130BB00EF1E0EF1AF108D1F673
:101C00001F5FA6CF87FFDFCF90910C01890FDBCF3D
:101C100090E0019660910C0170E00E94F02DA8CF39
:101C20000F931F93CF93DF9380910A0190910B0143
:101C300023E0829FF0011124E55AFC4F891740F1FF
:101C4000C0E0D3E060910C01C61740F10E94B60BD2
:101C5000209106018091F601820F8093F601909108
:101C60000701920F90930701191654F4082E000CE7
:101C7000990B40910C014150550B841795071CF0AE
:101C8000219520930601DF91CF911F910F91089527
:101C90001182108212828F5F3396D0CF0C2F10E00A
:101CA00070E0C8010E94F02D20910A01820F482F98
:101CB00050E02091F601022E000C330B021713079F
:101CC000BCF020910701022E000C330B20173107C6
:101CD0007CF08D9F90011124255A3C4F409159036F
:101CE00060915803809157030E94130BCF5FAACFD6
:101CF000FA01EE0FFF1FE40FF51FE55AFC4F1182AA
:101D000010821282F3CF8F929F92AF92BF92CF92A6
:101D1000DF92EF92FF920F931F93CF93DF93EC012B
:101D20004C81042F10E09801D8010E943B2E9B01AA
:101D3000AC010E94512E4B015C01E0E2F0E0E01B9F
:101D4000F10BA5E5B0E0AC019B010E94512E6B01A7
:101D50007C019F01DF010E94332E9B01AC010E9498
:101D60005C2E9B01AC01280D391D4A1D5B1DC7016E
:101D7000B6010E94042EF22E822F90E039E23F1528
:101D800060F143E0249F9001112435952795122F8F
:101D9000109500E085E5E82EEF1880910C010817FA
:101DA00058F10E94B60B9C8181E0992319F0903282
:101DB00019F48FEF8093050180910501890F8C83C1
:101DC000DF91CF911F910F91FF90EF90DF90CF9017
:101DD000BF90AF909F908F90089525E530E0B901B6
:101DE000681B790B9B01220F331F260F371F37FF0C
:101DF000CCCF2F5F3F4FC9CF8E2D01FD8F2D20916E
:101E00000A01622F600F7727771F9B01220F331F74
:101E1000260F371F255A3C4F412F609158030E94CF
:101E2000130B0F5FBACF0F931F93CF93DF93EC0188
:101E300010E000E090910C019017110609F06CF48D
:101E40000E94B60B8C8190E00196817099278C835B
:101E5000DF91CF911F910F91089520910A01A80160
:101E6000420F511D9A01220F331F240F351F255A8F
:101E70003C4F4C8160915803809157039695901781
:101E8000110651F04CF0442349F0409159030E944F
:101E9000130B0F5F1F4FCECF4423B9F340E0F7CFB2
:101EA0004F925F926F927F928F929F92AF92BF926A
:101EB000CF92DF92EF92FF920F931F93CF93DF9316
:101EC000FC016280448081E08483E1EDF4E0749061
:101ED000E0E5F5E0E491812C75E0972EF2E0CF2E5D
:101EE000DD24D394AA24AA94B12C55245A94E7193A
:101EF0000E2F10E080910C01881690F0DF91CF91A9
:101F00001F910F91FF90EF90DF90CF90BF90AF9017
:101F10009F908F907F906F905F904F900C94B60B36
:101F2000E82CF12C82E0861568F09E9CF0019F9CC5
:101F3000F00D1124E850FE4F80915703808380916B
:101F400058038183411023C09E9CF0019F9CF00D9B
:101F50001124E850FE4F1382128220910A01C7011A
:101F6000820F911D9C01220F331F280F391F255A04
:101F70003C4F9E9CF0019F9CF00D1124E850FE4FB9
:101F80004281618180810E94130B8394B3CF9E9C18
:101F9000E0019F9CD00D1124C850DE4F8B81882317
:101FA000E9F081508B83859DC00111246C8170E024
:101FB0000E94DC2DFB01FF27EF52FB4F8491E82F9D
:101FC000E719E59DC0011124B8010E94DC2D809124
:101FD0005903689FB00111247A83BFCF0E94B02EAD
:101FE00020915903269521582C9DA0012D9D500D1F
:101FF0001124452F5527841795070CF0AECF82E0AA
:10200000861588F40E94B02EB5010E94F02D8883B9
:102010000E94B02E209158032695622F70E00E94F6
:10202000F02D280F29839E9CF0019F9CF00D112418
:10203000E850FE4F128280915903893C58F088EC99
:102040009E9CF0019F9CF00D1124E850FE4F84836C
:10205000838383CF8431A0F784E1F2CFE6E5F3E018
:1020600080818E7F808360817181828193810E94D3
:10207000340B10925A022FEF80E792E021508040FB
:102080009040E1F700C000000C94B60BE6E5F3E0E9
:1020900080818E7F808310925A022FEF80E792E03A
:1020A000215080409040E1F700C000000C94B60B36
:1020B00060915603669570E04BE050E08DE091E052
:1020C0000E94C02E892B19F481E080935A020E944D
:1020D000C525909353028093520208959091560320
:1020E00090FF35C09170811128C092609093560383
:1020F000662351F060915603709157038091580305
:10210000909159030E94340B60915603669570E0DC
:102110004BE050E08DE091E00E94C02E892BA1F0B1
:1021200010925A0281E080935502409159036091C8
:102130005803809157030C94560D8B3210F0946520
:10214000D5CF880F982BD2CF0E945810EBCF08958F
:10215000682F90915603969581E0890F8B3208F095
:1021600081E00C946E1081E00C94A810682F90917F
:10217000560396958FEF890F09F48AE20C946E103E
:1021800081E00C94B61061E00C946E10E6E5F3E08B
:1021900080818160808386950C94C3108091560362
:1021A00080FD0C942E100C94C61060E00C946E1000
:1021B0008091580281112EC00E94CB23811104C04E
:1021C0000E9478240E94500B0E94300B60935603AB
:1021D0007093570380935803909359036E7F61F473
:1021E0000E94500B0E94300B60935603709357036C
:1021F00080935803909359030E94210B10925A0226
:102200008091560380FF03C086950E94D51081E01F
:10221000809358020895E6E5F3E080818160808331
:1022200086950C94D5100F931F93CF93DF938091D5
:102230005A02882309F496C080915902E09156030E
:10224000E695E81BE0935402823091F5F0E0E35309
:10225000FB4FE491CE2FD0E00BE01CE080915502C3
:10226000882361F0109255020E94C5259093530275
:102270008093520210925702109256020E94C52576
:10228000E0915202F09153028E1B9F0B8F3F9F47AC
:1022900008F068C0EC0FFD1FF0935302E093520268
:1022A00082E592E0F801DF91CF911F910F9109949F
:1022B000863049F4F0E0E653FB4FE491CE2FD0E0B6
:1022C0000FE11CE0CBCF893051F4E695F0E0E95303
:1022D000FB4FE491CE2FD0E009E51DE0BFCF8F305A
:1022E00051F4E695F0E0EC53FB4FE491CE2FD0E0B3
:1022F00006E91DE0B3CF853149F4F0E0EF53FB4F21
:10230000E491CE2FD0E000E11EE0A8CFC8E2D0E0FB
:1023100003E81EE0883109F4A1CF833239F4EFEBF2
:10232000F4E0C591D4910FE21CE098CFC4EFD1E066
:1023300003E11FE0843209F491CFC0EDD7E000E162
:102340001BE0853209F08ACF8E2F63E00E94C22DF8
:10235000E92FF0E0E454FB4FE491CE2FD0E000E50C
:102360001FE07CCFDF91CF911F910F910895FA016B
:10237000811101C0FB010994CF93DF93C82FD62FA1
:102380000E945F0B8C1740F00E945F0B8D1720F4AA
:10239000DF91CF910C94B3108C2FDF91CF910C94DF
:1023A000C3100F931F93CF938C01FB01C281CC23E9
:1023B00009F465C00E9414238272F801E25CFC45B6
:1023C000E431F10538F4EA57F04D0C94262E0E94C2
:1023D000CE10C0E08C2FCF911F910F91089540EC4B
:1023E00050E163EB70E10E94B711F3CF43EB50E192
:1023F00060EC70E1F8CF47E15DE06AE07DE0F3CFAB
:102400004AE05DE067E17DE0EECF45E35DE066E256
:102410007DE0E9CF46E25DE065E37DE0E4CF43E5C2
:102420005DE064E47DE0DFCF44E45DE063E57DE012
:10243000DACF42E95BE06BE77BE0D5CF4BE75BE0CF
:1024400062E97BE0D0CF81E00E94C310C2CF65E09B
:1024500082E00E94BC11BDCF68E086E0FACF6EE05A
:1024600089E0F7CF64E18FE0F4CF67E185E1F1CF58
:1024700088E1EACF62E289E1ECCF83E2E5CFC1E017
:10248000A9CF809191030C94FD23809191038695AF
:10249000869586950895089508950E94CB2381110D
:1024A00002C00E9478240E94F9238093910388350A
:1024B00020F0877080658093910390919103892F1C
:1024C000817090FF04C0892F8695869586950C941F
:1024D0004C1280919103982F9695969596959A30E7
:1024E00040F49F5F990F990F990F8770892B809304
:1024F0009103809191038160809391030E94FD2359
:10250000809191038695869586950C944C128091C6
:102510009103982F987F79F0885080939103887F5A
:1025200091E009F490E08091910390FB80F9809311
:1025300091030E94FD23809191038695869586954F
:102540000C944C128091910380FD13C081608093A4
:102550009103813019F489E0809391038091910374
:102560000E94FD23809191038695869586950C9413
:102570004C1208958091910380FF08C08E7F809354
:1025800091030E94FD2380E00C944C1208958091E9
:10259000910380FD0C94BA120C94A21290919103B5
:1025A000892F8695869586958F5F8F7197708B3072
:1025B000D8F4880F880F880F892B8093910380911E
:1025C0009103887F91E009F490E08091910390FB62
:1025D00080F9809391030E94FD2380919103869559
:1025E000869586950C944C1290939103E8CF8B308E
:1025F00008F08AE0909191039770282F220F220F04
:10260000220F922B90939103987F21E009F420E010
:102610009091910320FB90F9909391030C944C12AC
:102620000E94F712809191030C94FD2308959C0160
:10263000FB018281882349F12D3BFCE53F07C9F06E
:1026400040F42B3BECE53E0769F02C3B3C4579F030
:1026500008952F3B9CE5390791F070F0203C3C45F4
:1026600089F008958AE00E94101380E0089580E0C8
:10267000FACF0E948712F9CF0E946912F6CF0E940A
:10268000C712F3CF0E94CE12F0CF81E00895569A80
:102690004BB14F7B5BB15064EFB7F8949B01220FB5
:1026A000331F260F371F280F391F2817390741F40A
:1026B000EFBF8FE594E00197F1F700C000000895A7
:1026C000DC016D91CD0178E05BB9000000C067FFCF
:1026D0004BB9660F000000C000C000C04BB900C07D
:1026E0007A9591F7E2CF82E290E00E94CD2E81327E
:1026F00089F483E290E00E94CD2E863059F484E282
:1027000090E00E94CD2E91E0813009F090E0892F79
:102710008170089580E0FCCFCF93C82F6FEF8111B7
:1027200061E282E290E00E94E12E6FEFC11166E06B
:1027300083E290E00E94E12E6FEFC11161E084E23C
:1027400090E0CF910C94E12E80E00E948C130C94C9
:10275000C523089585E290E00E94CD2E682F70E099
:1027600090E080E0089585E290E00C94E12E0E94D4
:10277000A9130E94731381110CC060E070E0CB01BB
:102780000E94B3130E9490150E947A1681E00C9467
:102790008C130895CF93FB01C281CC2309F19C01D6
:1027A00022513F452031310520F582510E948A1681
:1027B000C0E08C2FCF91089581E00E948F2143E0EB
:1027C00062E081E00E947706F3CF81E00E94B021B1
:1027D00043E062E081E00E947706EBCF82E0F6CF33
:1027E0008031FFE59F0789F381319F45B9F3C1E04F
:1027F000E0CF8031EFE59E07F9F281319F45C9F6C0
:1028000082E0DBCF2FEFFC0120830895CF93DF938D
:10281000EC018881893029F08A3079F0DF91CF91FD
:1028200008950E9445122FEF829FC00111246AE093
:1028300070E00E94DC2D6983F1CF1982EFCFFC019B
:102840002081293061F48181FAE08F9FC001112439
:102850006FEF70E00E94DC2D862F0C94F712089524
:10286000CF93DF93EC0188818138A9F028F4803878
:1028700071F0DF91CF910895823881F08338C9F7E4
:102880000E94AA0B89830E94AD0B8A83F2CF0E941B
:10289000B00B8983EECF0E945F0BFBCF0E94950B9C
:1028A000F8CFCF93DF93EC0188818138E1F028F4F1
:1028B000803869F0DF91CF910895823811F1833823
:1028C000C9F70E94B00B482F6A81898108C0D9815D
:1028D0000E94AD0BC82F0E94AA0B4D2F6C2FDF91C9
:1028E000CF910C94560D89810E94D5108981811158
:1028F00004C0DF91CF910C944610DF91CF910C94DE
:102900000B118981DF91CF910C94A70BEF92FF926D
:102910000F931F93CF93DF93EC01E62EDC01ED9133
:102920008D01E150E33108F0B8C0F0E0E656F04D1B
:102930000C94262E198289E08A836E2DCE01DF91B8
:10294000CF911F910F91FF90EF900C94EF2689810A
:10295000823069F0833071F08130E1F40E94D1253A
:102960000E942C2E6A837B838C839D83E6CF0E94FA
:10297000AA13F6CF8E01F12C8F2D0E94AF05F8011E
:10298000828373836483F3940D5F1F4FF6E0FF121D
:10299000F3CFD3CF6E2DCE010E940214CECF89810A
:1029A0008230C1F76A817B818C819D810E942C2EAF
:1029B0000E94B313C2CF4B816A8189810E94621544
:1029C0009827892798279D838C83B7CF2C813D81B9
:1029D0003227232732274B816A8189810E947B1508
:1029E000ACCF0E949015A9CFCD010E941F14C80141
:1029F0000E945114A2CFCD010E940614C8010E946A
:102A000030149BCF0E9441120E94460B96CF0E9429
:102A10002516898392CF0E94271698278927982701
:102A20009A8389838ACF6B8170E089819A81AE0114
:102A30004C5F5F4F9827892798270E942A167DCFE1
:102A40006B8170E089819A81AE014C5F5F4F98275E
:102A5000892798270E94501670CF0E947A166DCF52
:102A60000E945015D6CF6B8170E089819A81AE01AA
:102A70004C5F5F4F9827892798270E94C8155DCF24
:102A80006B8170E089819A81AE014C5F5F4F98271E
:102A9000892798270E94EE1550CF8FEF88834DCF5E
:102AA00084E0089550E0440F551F94E2699F400D63
:102AB000511D112498ED899F400D511D1124CA010B
:102AC000869608950F931F93CF93DF930E9452151C
:102AD0008C010E94CD2EC82FD0E0DC2FCC27C8015E
:102AE00001960E94CD2E9E01282BC901DF91CF9126
:102AF0001F910F9108950F931F93CF93DF93122F80
:102B0000032F0E945215EC01602F0E94E12E612FCD
:102B1000CE010196DF91CF911F910F910C94E12E80
:102B2000AF92BF92CF92DF92EF92FF921F93CF931B
:102B3000DF938CEAC82E80E0D82ED0E07601C0E08A
:102B400014C0F50125913491412F6C2F8D2F0E94D7
:102B50007B1582E0A80EB11C1F5F123191F784E251
:102B6000E80EF11CCF5FC63019F0570110E0E9CF35
:102B7000DF5F88EDC80ED11CD43001F7DF91CF9113
:102B80001F91FF90EF90DF90CF90BF90AF9008958E
:102B9000EF92FF920F931F93CF93DF93EC018A0183
:102BA0007C01E60EF71ECE018696CE15DF0539F4C0
:102BB000DF91CF911F910F91FF90EF900895C03654
:102BC00023E0D20740F40E94CD2EF80180830F5FEE
:102BD0001F4F2196E8CFF8011082F9CFCF92DF92F4
:102BE000EF92FF920F931F93CF93DF937C016A01C3
:102BF0008C01060F171FEC01CE018696C017D10776
:102C000049F4DF91CF911F910F91FF90EF90DF90EA
:102C1000CF900895C03623E0D20740F4FE01EE19AC
:102C2000FF09EC0DFD1D60810E94E12E2196E4CF8D
:102C3000462F843038F4763028F4623118F4672F48
:102C40000C94621590E080E0089580E108958AE791
:102C500090E00895EF92FF920F931F93CF93DF932D
:102C6000EC018A017C01E60EF71ECE018A579C4FCB
:102C7000CE15DF0539F4DF91CF911F910F91FF90B1
:102C8000EF900895CA37D10540F40E94CD2EF80187
:102C900080830F5F1F4F2196E8CFF8011082F9CF94
:102CA000CF92DF92EF92FF920F931F93CF93DF9318
:102CB0007C016A018C01060F171FEC01CE018A57B7
:102CC0009C4FC017D10749F4DF91CF911F910F910D
:102CD000FF90EF90DF90CF900895CA37D10540F470
:102CE000FE01EE19FF09EC0DFD1D60810E94E12E31
:102CF0002196E4CFCF93DF93C6E8D3E060E0CE0126
:102D00000E94E12E2196C11584E0D807B9F7DF9122
:102D1000CF910895DF92EF92FF920F931F93CF937D
:102D2000DF9300D000D0CDB7DEB7F82E8FE08F153F
:102D300040F08FEF93E00E94CD2E06E813E0882349
:102D4000C1F00F900F900F900F90DF91CF911F91D6
:102D50000F91FF90EF90DF900895011584E0180720
:102D600081F3C8010E94CD2E811101C0FA940F5F3A
:102D70001F4FF110F2CF19821A821B821C82DD24B0
:102D8000D39478018FEFE81AF80AC8010E94CD2E7B
:102D900089831A828823A9F29FEF980F933078F4E1
:102DA0008A83D9820E5F1F4FC7010E94CD2E8B836D
:102DB000882339F2CE0101960E94C307E2CF870132
:102DC000F9CF0F931F93CF93DF93C42FD22FFC0122
:102DD00082818823C9F040935D020E94C5259093AB
:102DE0005C0280935B0280E28C0F883008F050C058
:102DF000C77081E001C0880FCA95EAF7DF91CF91D3
:102E00001F910F910C942B1B10915D02141335C070
:102E100080915B0290915C020E94DD25883C9105C7
:102E200060F5C0E2CD0F1D17B9F080E2810F883048
:102E300040F4177081E001C0880F1A95EAF70E94EC
:102E4000321BC83048F481E09D2F977001C0880F75
:102E50009A95EAF70E942B1B802F0E94231BC830F3
:102E6000B8F4D77081E001C0880FDA95EAF7DF91F6
:102E7000CF911F910F910C94321B80E28C0F883000
:102E800038F4C77081E001C0880FCA95EAF7EFCF28
:102E9000DF91CF911F910F9108950F939C01CB016A
:102EA000233F4CE5340759F1A8F4283DFCE53F07E2
:102EB00001F1293D4CE53407D1F1273D3C4591F422
:102EC00006E221EE41EE67ED7CE50E94E11680E02E
:102ED0000F910895253FFCE53F07E9F0B0F0263F4C
:102EE0003C45F9F0FC018281882339F110925D02A2
:102EF000EFCF07E225EE45EE68ED7CE5E6CF06E292
:102F000021EE40EE63EF7CE5E0CF07E225EE44EEF4
:102F100064EF7CE5DACF06E221EE42EE65EF7CE578
:102F2000D4CF07E225EE46EE66EF7CE5CECF08E291
:102F300021E045EE69ED7CE5C8CF81E0C9CFCF93B4
:102F4000DF93EC01FB018281882309F419C1C230AF
:102F5000FCE5DF07C0F1C6319CE5D90730F09E01E2
:102F60002A5F3C452930310570F50E94DE2390939D
:102F7000970380939603C031ECE5DE0709F4CFC0D8
:102F800008F05BC0C8308CE5D80709F4B6C088F5F6
:102F9000C430ECE5DE0709F4A8C0C0F4C2308CE50B
:102FA000D80709F49CC0809196038260C330DC4549
:102FB00009F498C080919603909197030E94EC23A6
:102FC0000E94951D80E0DF91CF9108958091960336
:102FD0008061C630ECE5DE0709F484C08091960379
:102FE0008860C730DC4508F47DC08091960380621C
:102FF00079C0CC308CE5D80709F489C070F4809191
:1030000096038C60CA30ECE5DE0709F46BC008F467
:1030100078C0809196038E7F65C0CE308CE5D8074E
:1030200009F479C0809196038B7FCF30DC4508F49A
:1030300059C0809196038F7E55C0CB3FECE5DE07EB
:1030400009F457C030F5C3318CE5D80709F46FC0D7
:1030500078F4C131ECE5DE0709F465C0C231DC4526
:1030600009F0A8CF0E94951D809196038F773AC0F2
:10307000C5318CE5D80709F462C008F476C08091A8
:1030800097038160CA3FDC4509F094CF8093970392
:1030900091CFCF3FFCE5DF0709F44DC088F4809164
:1030A00097038D7FCD3F9CE5D90781F380919703EE
:1030B0008E7FCE3FDC4550F3809197038360E6CF4F
:1030C000C130FDE5DF0709F459C008F444C080E0D1
:1030D000C230DD4509F06ECF0E947A246BCF80911B
:1030E000960381608093960365CF809196038460F8
:1030F000F9CF809197038260C9CF80919603806455
:10310000F1CF0E94951D809196038068EBCF80914E
:1031100096038D7FE7CF80919603877FE3CF8091E1
:1031200096038F7DDFCF809196038F7BDBCF8091DD
:103130009603837FD7CF809197038C7FA7CF809111
:10314000960382FB992790F921E0922790FB82F960
:1031500090FB83F9C7CF80919703982F909591703A
:103160008E7F892B90FB81F991CF0E94951D9091C4
:103170009603892F97FB87F98058B4CF81E0ACCFB5
:1031800081E021CFCF93DF93EB0186319C4511F590
:103190000E9414239A81992399F08A7A91E009F484
:1031A00090E090935E02811109C089E20E94EF22B3
:1031B0000E94602380E0DF91CF91089585E3F6CFF0
:1031C00080915E02811104C089E20E94F622F0CF54
:1031D00085E3FBCF81E0EFCF90936402809363029D
:1031E0000895E0916302F0916402309721F001901C
:1031F000F081E02D099480E00895E0916302F09160
:103200006402309799F020912401222359F02091F3
:10321000960327FF07C0DC012C9111962C93119780
:1032200025E02C930280F381E02D099408952091EC
:103230006102309162022817390771F0909362029F
:1032400080936102E0916302F0916402309721F073
:103250000680F781E02D0994089520915F02309156
:1032600060022817390771F09093600280935F0223
:10327000E0916302F0916402309721F00084F185BF
:10328000E02D099408950E94D125609382027093E5
:103290008302809384029093850260937E027093F0
:1032A0007F028093800290938102089585B78068A1
:1032B00085BF85B7806885BF0895089508950C94EB
:1032C0005D1908950C9461190E94561983EC93E2DC
:1032D0000E9434260E945E190C945F1981E00895C3
:1032E0000C946E19089508950E94BC250E948104D3
:1032F0000E94B7130E944F260E944D120E94D810C0
:103300000C9462194F925F926F927F928F929F926C
:10331000AF92BF92CF92DF92EF92FF920F931F93E3
:10332000CF93DF93CDB7DEB72A970FB6F894DEBF01
:103330000FBECDBF0E9472190E9473190E94A10492
:1033400081110E94431956E6A52E52E0B52E10E0D9
:1033500000E0802E802F0E94AF052B013C01F5017B
:10336000C190D190E190F1905F01C414D504E604BE
:10337000F70409F479C08091320381FD0E94BA05F7
:10338000D701C60184259525A625B725912CC12CEA
:10339000D12C7601C394AC01BD014C215D216E217D
:1033A0007F21452B462B472B09F456C00E947019EC
:1033B0008823C9F09E828F824C205D206E207F2062
:1033C00081E045284628472809F480E088870E9444
:1033D000C5258160782F9A8789874E815F816885AE
:1033E0008A850E94621A000F111F000F111FF80139
:1033F000EA59FD4F80819181A281B3818C259D2561
:10340000AE25BF2580839183A283B3830E941311CD
:103410000E9416130E94F118909165028917D9F144
:103420000E94F118809365022A960FB6F894DEBFC9
:103430000FBECDBFDF91CF911F910F91FF90EF9005
:10344000DF90CF90BF90AF909F908F907F906F90C4
:103450005F904F900C94CB079394CC0CDD1CEE1C2A
:10346000FF1CF2E19F1297CF0F5F1F4F063011052F
:1034700009F06FCF8FEF89838A831B820E94C52555
:103480008160782F9D838C8349815A816B818D81E6
:103490000E94621ABBCF2A960FB6F894DEBF0FBE09
:1034A000CDBFDF91CF911F910F91FF90EF90DF90F3
:1034B000CF90BF90AF909F908F907F906F905F90D4
:1034C0004F900895DF92EF92FF920F931F93CF9347
:1034D000DF93CDB7DEB72B970FB6F894DEBF0FBEE4
:1034E000CDBF7A878B87F42E052F162FE72ED82E87
:1034F00061110E9434231E821D827E2DEC82DD82AA
:103500004F2D502F612F8D2D9E812B960FB6F89445
:10351000DEBF0FBECDBFDF91CF911F910F91FF9006
:10352000EF90DF900C940B20FC01808191810C9432
:10353000C122CF93C82F882309F444C08CEF8C0F8D
:10354000813AC8F48C2F0E94410A81113BC06C2F34
:1035500080911801909119010E949324882329F0E9
:103560008C2F0E94F6220E9460238C2F0E94EF2253
:10357000CF910C94602380E28C0F883048F4C770A0
:1035800081E001C0880FCA95EAF70E941723F0CFA7
:10359000EBE5EC0FE33040F4F0E0E155FE4F8081C5
:1035A00090E0CF910C941719C85AC73158F4EC2FFA
:1035B000F0E0EE0FFF1FEF57FE4F80819181CF911A
:1035C0000C942D19CF910895882329F19CEF980F21
:1035D000913A20F40E94F6220C94602390E2980F16
:1035E000983050F4877091E001C0990F8A95EAF7FE
:1035F000892F0E941D23F0CF9BE5980F933020F474
:1036000090E080E00C941719885A873120F490E0FC
:1036100080E00C942D1908951F93CF93DF93182FFA
:10362000EB010E94991A209731F4812FDF91CF91FD
:103630001F910C94E41A8FE99FE00197F1F700C005
:1036400000002197F0CF70E060E0893311F460E56D
:1036500070E00C940C1B882321F00E9417230C941B
:1036600060230895882321F00E941D230C94602379
:103670000895BF92CF92DF92EF92FF920F931F9324
:10368000CF93DF936C01D62FC72FFC0112810581E8
:1036900002950F700E940D23E82E8823A1F0E12EE1
:1036A000112389F08C2F807F803429F080E28D0FE8
:1036B000E12C883040F082E00E94AB230E940D2371
:1036C00091E0E82EE926BC2EB2949FE0B922EB2DC2
:1036D000F0E0E355F04D0C94262E0C2F0F70C07FB8
:1036E00011F00295007F1123A9F0002359F080E228
:1036F0008D0F883010F0D11109C0802F0E94172340
:103700000E9460238D2F0E94991A14C0802F0E945E
:103710002723F6CF8D2F0E94E41A002359F080E270
:103720008D0F883010F0D1112CC0802F0E941D23E6
:103730000E9460232B2D2850330B2430310520F4B8
:103740000E94F1180E94CB07EE2009F493C10E9459
:10375000092380FD8FC1F60112820E9403230E947B
:103760008F21C6010E945B1D0E940323DF91CF9130
:103770001F910F91FF90EF90DF90CF90BF900C942E
:10378000B021802F0E942D23D3CFFC2FFF70FF2E5E
:10379000C07FC03219F0F29480EFF822DD2369F087
:1037A000D13049F1112391F1002351F1F6018581C6
:1037B00080FFA8CF8F70858323C0112381F0011172
:1037C00006C00E9447238F290E942B1BB3CF0130D4
:1037D000C1F70E9447238F290E944D23ABCF0111CF
:1037E00006C00E9456238F2D0E94321BA3CF0130AA
:1037F00009F4A0CFF6CF112329F0063008F09ACFB4
:103800008F2DE2CF053008F095CFEDCF002359F38F
:10381000D93349F4FFEF27EE33E0F1502040304038
:10382000E1F700C000008D2F0E94E41A83CF8C2F97
:1038300086958695837069F0813009F07BCF8D2F56
:103840009C2F9370111102C090E080E00E942D190E
:1038500071CF8D2F9C2F9370111102C090E080E0EA
:103860000E94171967CF8C2F837009F041C0111186
:1038700061CF4D2F429546954770440F440F0D2F51
:103880000F7010E030E020E0042E04C0000F111F84
:10389000221F331F0A94D2F760E070E0CB01D4FFFF
:1038A0000FC06FE070E080E090E004C0660F771F0B
:1038B000881F991F4A95D2F76095709580959095CD
:1038C000C695C695C370602B712B822B932BC2308B
:1038D00049F058F4C13019F00E9441212BCF0E94C9
:1038E0002F2128CF0E94532125CF0E942D2122CFA6
:1038F0008695112311F08C2F8170882309F41ACF3B
:103900004D2F429546954770440F440F0D2F0F7071
:1039100010E030E020E0042E04C0000F111F221F31
:10392000331F0A94D2F760E070E0CB01D4FF0FC0E0
:103930006FE070E080E090E004C0660F771F881FA2
:10394000991F4A95D2F76095709580959095C69588
:10395000C695C370602B712B822B932BC23049F01C
:1039600058F4C13019F00E940622E4CE0E94F421DE
:10397000E1CE0E941822DECE0E946921DBCECF70FC
:10398000112329F08C2F0E948F218D2F1DCF8D2F79
:103990000E94321B8C2F0E94B021CCCED23F89F1E5
:1039A00060F4D03FC9F0D13F29F1112309F442C09E
:1039B0000111A8CE8C2F8F7121C0D33F39F1D43F94
:1039C000A1F7112369F1CF718C2F0E948F2163E041
:1039D0008C2F0E949623AECE112341F0053008F0C3
:1039E000A9CE8C2F8F710E94D321A4CE063008F06F
:1039F000A1CEF7CF8C2F8F71112369F20E948F21F6
:103A000099CE8C2F8F711123C9F3C5CF112329F0C3
:103A10008C2F8F710E947A218DCE0E9475218ACEC3
:103A200081E00E94AB23023008F484CE82E00E9441
:103A3000AB2380CE002359F0D93309F0F4CE8FEFB9
:103A400097EEE3E081509040E040E1F7EACE8C2F22
:103A50008F71A1CF4C2F4F706D2FC6010E94D307DD
:103A60000E94A52067CE4C2F4F706D2FC6010E947B
:103A7000D60760CEDF91CF911F910F91FF90EF900D
:103A8000DF90CF90BF9008950F931F93CF93DF9354
:103A9000EC01688179818A810E94CB228C010E948D
:103AA0002A220E942C21B801CE01DF91CF911F91D3
:103AB0000F910C94391BCF93DF93EC018B819C8188
:103AC000892B29F08881998189238F3F59F4DF91CF
:103AD000CF910895CE010E94441DCE01DF91CF9178
:103AE0000C941806CE010E94A7068111F3CF0E9404
:103AF0000D23882361F38A81882349F382E0DF91D3
:103B0000CF910C94AB2390E080E00E94171990E0D5
:103B100080E00E942D190E9434230E9444230C94BB
:103B200060230E94FD220C94831D0E9424230C9488
:103B3000911DE92FE295EF70E250EE3070F4F0E065
:103B4000E354F04D0C94262E803F19F020F4883E6B
:103B500020F481E00895843FE1F380E00895883EF9
:103B6000C0F3813FD1F7F5CF93FB882780F9089503
:103B70000E94C1220C94991DCF93DF9300D000D0F6
:103B80000F92CDB7DEB70F900F900F900F900F9060
:103B9000DF91CF910895CF93DF9300D000D000D074
:103BA000CDB7DEB726960FB6F894DEBF0FBECDBFF9
:103BB000DF91CF9108951F93CF93DF93C091870238
:103BC00016E0809188028C1304C0DF91CF911F9181
:103BD0000895D0E01C9FF0011D9FF00D1124E757C0
:103BE000FD4F4081518162817381848195810E9462
:103BF000CB1D2196C770E5CF4091B9025091BA0212
:103C00006091BB027091BC028091BD029091BE0296
:103C10000C94CB1D1F93CF93DF938091BE02807FC6
:103C2000A9F48091BB02882389F080918702C0911A
:103C300088026091B9027091BA02A091BC02B09161
:103C4000BD02D62FD72316E0C81304C0DF91CF9151
:103C50001F91089590E0109711F0DF3F19F401963D
:103C60008770F2CF189F9001199F300D1124F90130
:103C7000E757FD4F41814713F2CF40814613EFCF05
:103C800042814111ECCF438154814A1B5B0B483C7C
:103C9000510528F78091BE028F7080618093BE022B
:103CA000F901E257FD4F80818F708061808389EB3D
:103CB00092E00E945B1DDF91CF911F910C94DB1D60
:103CC000AF92BF92CF92DF92EF92FF920F931F932A
:103CD000CF93DF93CDB7DEB761970FB6F894DEBF11
:103CE0000FBECDBF8C0185E0F801DE011D9601906D
:103CF0000D928A95E1F7F80140815181E28089EBCC
:103D0000C82E82E0D82E6091BC027091BD02611570
:103D1000710509F461C19091B9022091BA02892F0D
:103D200082238F3F09F458C1A380B480F090BB0276
:103D3000F501E61BF70BFF2009F4FCC08091BE02E1
:103D4000382F307FE83CF10508F0B2C0311179C05E
:103D5000FE2C251323C0941321C0E1101FC08F70C7
:103D600080618093BE020E94FC1DC6010E945B1D03
:103D70008091BE02F80185838F2D61960FB6F8946D
:103D8000DEBF0FBECDBFDF91CF911F910F91FF908E
:103D9000EF90DF90CF90BF90AF900895AB2829F0BF
:103DA000842F85238F3F09F033C180E0F82FF17015
:103DB000DF2E80FF3CC0809187022091880236E090
:103DC000821315C04D875E878D859E850E94C12216
:103DD000292F22952F702230F0F0243018F59F7093
:103DE000F1F0F8019581907FD1F4D12C1EC090E0C4
:103DF000389FF001399FF00D1124E757FD4F618185
:103E0000651306C06081641303C062816E110FC028
:103E100001968770D5CF9F7011F0882331F3805EB3
:103E2000883018F3C8010E945B1DFD2CA5CFEE2041
:103E300009F4A2CF8091BE0281608093BE02F12C72
:103E40009BCF251306C0941304C0F801EE2009F49B
:103E50008DC04D875E878D859E850E94B81D882305
:103E600019F1EE2009F18091BE02803270F02091AC
:103E7000B9023091BA0238872F831986BB86AA8689
:103E80008C87CE0107960E945B1D86E0F801A9EBA6
:103E9000B2E001900D928A95E1F70E940A1E0E94FD
:103EA000FC1DFF24F39468CFC8010E945B1DF9CF6D
:103EB000311113C07A2DB98AA88A6E2D89890E9482
:103EC000BC1D89EB92E00E945B1D86E0F601119219
:103ED0008A95E9F70E94FC1DB2CF25130FC09413F9
:103EE0000DC0E1100BC0F8018583C8010E945B1D65
:103EF00086E0F60111928A95E9F73ECF4D875E87FD
:103F00008D859E850E94B81D882371F2EE2061F296
:103F10008091BE02803208F4B8CF2091B90230916E
:103F2000BA023A8329831B82BD82AC828E83CE0182
:103F30000196A9CFE83CF10508F041C0FE2CEE2027
:103F400009F4B2CF25132AC0941328C08091BE0271
:103F500080FD1BC0982F907FC1F0F8018583903FB2
:103F600031F0982F907F905F8F70892B8583C801E7
:103F70000E945B1D86E0F801A9EBB2E001900D9272
:103F80008A95E1F70E94FC1DF7CE86E0F801A9EBC7
:103F9000B2E001900D928A95E1F7EECE4D875E87F3
:103FA0008D859E850E94B81D81116FCF8091BE02C4
:103FB00081608093BE02C8010E945B1DDDCE7A2D18
:103FC000B98AA88A6E2D89890E94BC1D86E0F601F7
:103FD00011928A95E9F7D6CFEE2009F465CF4D8787
:103FE0005E878D859E850E94B81DF82E882309F472
:103FF0005BCF86E0F801A9EBB2E001900D928A95C3
:10400000E1F789EB92E00E94941A0E940A1EBACF4F
:1040100081E08E25CBCE1F93CF93DF93CDB7DEB754
:104020002C970FB6F894DEBF0FBECDBF4F835887D5
:1040300069877A878B879C87CE0107960E94601ECE
:10404000882369F08A859B85892B39F04F815885B3
:10405000842F85238F3F09F071C016E05FC086E092
:10406000FE013796DE01119601900D928A95E1F7D7
:104070008A859B85892B89F38F81988589238F3F3A
:1040800061F32091880230E0C90101968770992779
:10409000409187024817190671F40E94951D1092ED
:1040A00088021092870286E0E9EBF2E0DF011D92C0
:1040B0008A95E9F7D2CF96E0929FD001939FB00DF9
:1040C0001124A757BD4FFE01319601900D929A958C
:1040D000E1F7809388020E94DB1DBFCF819FC00162
:1040E000112487579D4F0E94601E8823E9F0E091BC
:1040F00087021E9FF0011124E757FD4F4081518137
:1041000062817381848195810E94CB1D8091870299
:1041100090E00196877099278093870280918702AB
:10412000909188028913DACF2C960FB6F894DEBFEF
:104130000FBECDBFDF91CF911F91089569857A851C
:104140008B859C850E94CB1D88CFEF92FF920F93A9
:104150001F93CF93DF938C01892B81F0F12CEE24F8
:10416000E394E8012196F8018491843770F4843057
:1041700008F05FC08130B1F08230A1F1DF91CF91C2
:104180001F910F91FF90EF900895853709F44CC06F
:1041900008F43DC09CE7980F903780F78F770E9416
:1041A000E41A49C00E5F1F4FFE01849190E2980F00
:1041B000983060F48770FE2D01C0FF0F8A95EAF7F2
:1041C0008F2F0E9437230E94602302C00E94991AF9
:1041D0008F2D815030F2EFE9FFE03197F1F700C009
:1041E0000000F7CF0E5F1F4FFE01849190E2980F01
:1041F000983050F48770FE2D01C0FF0F8A95EAF7C2
:104200008F2F0E943D23DFCF0E94E41AE1CF0E5F83
:104210001F4FFE01C491C150D8F28FE99FE0019772
:10422000F1F700C00000F7CF0E5F1F4FFE01F490C2
:10423000CFCF0E94991A8E01CBCF08950C941D21E7
:104240000E941E216093090370930A0380930B035D
:1042500090930C030C94831D08950C9420210F93CC
:104260001F930091090310910A0320910B033091D1
:104270000C03602B712B822B932B1F910F910C94AD
:1042800020210F931F930091090310910A0320919D
:104290000B0330910C0360237123822393231F911E
:1042A0000F910C9420210F931F93009109031091FB
:1042B0000A0320910B0330910C036027712782279A
:1042C00093271F910F910C9420210C941D210C9485
:1042D00065210E9467216093050370930603809314
:1042E0000703909308030C94831D60E070E0CB01FA
:1042F0000C9469210F931F9341E050E060E070E05F
:104300008A019B0104C0000F111F221F331F8A95D1
:10431000D2F7C901B8011F910F910C9469210F9335
:104320001F9341E050E060E070E004C0440F551F6F
:10433000661F771F8A95D2F7809105039091060337
:10434000A0910703B09108038A019B01082B192B48
:104350002A2B3B2BC901B8011F910F910C946921A5
:104360000F931F9341E050E060E070E004C0440F01
:10437000551F661F771F8A95D2F7CB01BA0160954A
:1043800070958095909500910503109106032091FA
:1043900007033091080360237123822393231F9125
:1043A0000F910C9469210F931F9341E050E060E05E
:1043B00070E004C0440F551F661F771F8A95D2F71F
:1043C0008091050390910603A0910703B091080323
:1043D0008A019B01082719272A273B27C901B80111
:1043E0001F910F910C9469210F931F930091050366
:1043F000109106032091070330910803602B712B65
:10440000822B932B1F910F910C9469210F931F9373
:1044100000910503109106032091070330910803D2
:1044200060237123822393231F910F910C946921A0
:104430000F931F930091050310910603209107032A
:104440003091080360277127822793271F910F91CE
:104450000C946921089522E1929F800D1124982FD8
:10446000977041E001C0440F9A95EAF786958695CA
:10447000869595E0899FF0011124E154FD4F90E06D
:1044800080E070E05191DF0111979B01082E02C07E
:10449000369527950A94E2F7217021952527242344
:1044A00025272C9301968530910561F7089522E127
:1044B000929F800D1124982F9770869586958695EA
:1044C00025E0829FF0011124E154FD4F50E040E0CF
:1044D00080E0219130E0092E02C0369527950A949C
:1044E000E2F721703327042E01C0220F0A94EAF765
:1044F000822B4F5F5F4F4530510559F70895BF92AA
:10450000CF92DF92EF92FF920F931F93CF93DF939F
:104510008C01C0900503D0900603E0900703F09053
:1045200008038091090390910A03A0910B03B091B5
:104530000C03C82AD92AEA2AFB2ACFE1D0E0BC2EF4
:10454000D701C6010C2E04C0B695A79597958795FF
:104550000A94D2F780FD0EC0219788F7B12C8B2DDD
:10456000DF91CF911F910F91FF90EF90DF90CF904F
:10457000BF900895B8018C2F0E94DF07019761F367
:10458000EECFCF93DF93EC010E947F22BE01DF913B
:10459000CF910C94DF071F93CF93DF93EB019091A2
:1045A0008602992331F0CB01DF91CF911F910C94BA
:1045B000C122882379F0CB010E947F22182F682F17
:1045C000CE010E942B22BE01812FDF91CF911F913E
:1045D0000C94DF07CB010E945722182FF4CF682FCD
:1045E00080911801909119010C941325682F8091E6
:1045F0001801909119010C941E2580911801909139
:1046000019010C94292580910D0385958595859533
:10461000089580910D038770089590910D03977010
:1046200081E009F480E0089580913103089590912C
:104630003103892B80933103089580959091310344
:104640009823909331030895109231030895909127
:104650003003892B80933003089580959091300327
:104660009823909330030895109230030895909109
:104670002F03892B80932F030895809590912F030A
:10468000982390932F03089510922F0308958091FB
:104690000E03089508950C944A2390910E039817E1
:1046A00021F080930E030C944B23089580910E0308
:1046B000882329F010920E0380E00C944B23089578
:1046C000E0911801F0911901809131038083E0910C
:1046D0001801F0911901808190913003892B80831A
:1046E000E0911801F0911901808190912F03892B9D
:1046F000808390910E03992381F0E0911801F0914D
:1047000019018081892B8083809118019091190172
:104710000E947F2481110E9456238091180190915C
:1047200019010C94FD1808950C94932398E0899F27
:1047300090011124622B60930D030E948F218091C0
:104740000D038595859585950C94942310920D0302
:1047500080E00C94942390910D038095892380939D
:104760000D03282F277071F4282F082E000C330B0F
:104770009217130639F08595859585950E94B0218D
:104780000C94A623089580E008956FEF7FEF90E0EA
:1047900080E00C94FF2E90E080E00E94DB2E21E070
:1047A0008B3E9E4F09F020E0822F089582E090E03A
:1047B0000C94CD2E83E090E00C94CD2ECF9384E02A
:1047C00090E00E94CD2EC82F81E290E00E94CD2E75
:1047D000982F8C2FCF910895CF93C92F682F84E005
:1047E00090E00E94E12E6C2F81E290E0CF910C943A
:1047F000E12E86E090E00C94CD2E682F86E090E0CC
:104800000C94E12EAB01BC018FE090E00C94F32EF0
:10481000AB01BC0183E190E00C94F32E60E070E00A
:10482000CB010C94082460E070E0CB010E940224CC
:104830000C940E246BEE7EEF90E080E00E94FF2E41
:1048400060E082E090E00E94E12E60E083E090E092
:104850000E94E12E1092090310920A0310920B039A
:1048600010920C0360E084E090E00E94E12E60E092
:1048700081E290E00E94E12E60E085E090E00E94FD
:10488000E12E60E086E090E00E94E12E6FEF87E08D
:1048900090E00E94E12E40E050E0BA0188E090E014
:1048A0000E94F32E60E08DE090E00E94E12E40E057
:1048B00050E0BA0188E190E00E94F32E60E087E1C9
:1048C00090E00E94E12E40E050E0BA018CE190E0DF
:1048D0000E94F32E60E080E290E00E94E12E40E032
:1048E00050E0BA0188E190E00E94F32E0C9413246A
:1048F0000C941A24682F8EE090E00C94E12EFC01B9
:10490000329680912401882321F0809196039EE1C4
:1049100087FF96E080E0915008F4089521912223CA
:10492000D1F38F5FF8CF662301F120912401222378
:10493000F1F02091960327FF1AC0462F4695469521
:1049400046954E3190F4677021E030E002C0220FAE
:10495000331F6A95E2F7840F911DFC01828190E07C
:104960002823392381E0232B69F480E00895FC019A
:10497000329608962191261721F0E817F907D1F70A
:10498000F4CF81E008959C01FC0132969FEF80E016
:104990004191461751F09F3F19F4411101C0982FE2
:1049A0008F5F8630A9F79F3F09F40895290F311DC5
:1049B00097FD3A95F90162830895FC0132960896B5
:1049C0002191261303C0DF0111971C92E817F90704
:1049D000B9F70895E62FE695E695E695EE3168F489
:1049E000E80FF92FF11D677021E030E001C0220FC0
:1049F0006A95EAF78281822B82830895E62FE695F5
:104A0000E695E695EE3170F4E80FF92FF11D677029
:104A100021E030E001C0220F6A95EAF720958281FB
:104A200028232283089520912401222329F0209114
:104A3000960327FD0C94EA240C94C32420912401AE
:104A4000222329F02091960327FD0C94FE240C9438
:104A5000DD24FC01329680912401882351F080915D
:104A6000960387FF06C08EE1DF011D928A95E9F764
:104A7000089586E0F9CF089508950C943C2580911F
:104A80009C03843061F10E943D2580E00E944C121D
:104A900080E00E94CB071092330388E190E020E48D
:104AA0000FB6F894A895809360000FBE2093600025
:104AB00083B7817F846083BF83B7816083BF78942D
:104AC000889583B78E7F83BF0FB6F894A8958091A1
:104AD0006000886180936000109260000FBE0895AE
:104AE0000895CF930E943B250E94A1040E94702547
:104AF000C0E08C2F0E94AF05672B682B692B31F427
:104B0000CF5FC630B1F780E0CF91089581E0FCCF50
:104B100008950C9488250E94951D0E944D120E94B4
:104B2000F1180E94CB070C9489251F921FB61F9283
:104B300011248F939F93AF93BF938091330381117F
:104B400013C08091920390919303A0919403B0912C
:104B500095034196A11DB11D8093920390939303F9
:104B6000A0939403B0939503BF91AF919F918F91C0
:104B70001F901FBE1F90189582E084BD93E095BDE5
:104B80009AEF97BD80936E0008952FB7F8948091A7
:104B9000920390919303A0919403B09195032FBF3A
:104BA00008952FB7F89460919203709193038091C8
:104BB0009403909195032FBF08959C014FB7F894EB
:104BC0008091920390919303A0919403B0919503E7
:104BD0004FBF821B930B089578941F921FB61F92AC
:104BE00011248F939F93AF93BF93809192039091E1
:104BF0009303A0919403B09195030196A11DB11D5B
:104C00008093920390939303A0939403B09395039E
:104C1000BF91AF919F918F911F901FBE1F901895CC
:104C200081E08093E00080E28093D8001092C90078
:104C30008FE19EE40197F1F700C0000087E090EB60
:104C4000DC018093A5039093A603A093A703B093E0
:104C5000A80388E19CE00FB6F894A89580936000C3
:104C60000FBE90936000FFCF9093C3018093C20169
:104C700008950C94A4130E94A1048FE39CE901976A
:104C8000F1F700C000000E94A10484E00E94AF057B
:104C900072FF04C00E9439260C94102608950E94C9
:104CA000CB23811102C00E9478240E94D6238093D6
:104CB00032030E94DE2390939703809396030E9411
:104CC000DA23682F70E090E080E00E942D2160914F
:104CD00005037091060380910703909108030C94DB
:104CE00067218091540308950895CF93DF9300D0F6
:104CF0000F92CDB7DEB790919C03943011F5898364
:104D00007B836A839093E9008FEF9091E800815054
:104D100095FD06C095ED9A95F1F700008111F5CF4C
:104D20008091E80085FF0DC050E040E063E070E056
:104D3000CE0101960E94E2288091E8008E77809350
:104D4000E8000F900F900F90DF91CF910895BC0174
:104D500084E00C947526BC0183E00C947526CF93F7
:104D6000DF93EC01809124018823B1F180919603B7
:104D700087FF32C060E284E08093E9008FEF90917A
:104D8000E800815095FD06C095ED9A95F1F7000079
:104D90008111F5CF8091E80085FF1BC0809124012F
:104DA00070E050E040E0811104C050E040E068E075
:104DB00070E0CE010E94E2288091E8008E77809317
:104DC000E80080E2FE01A4E3B3E001900D928A9531
:104DD000E1F7DF91CF91089568E081E0CDCFCF93E7
:104DE000FC01603221F580919C03843001F5C09173
:104DF000E900CF702091EC00922F917020FD90E897
:104E0000C92B82E08093E9008091E80080FF0CC00C
:104E100050E040E060E270E0CF010E94E228809123
:104E2000E8008E778093E800CF70C093E900CF91BF
:104E3000089580919B03811109C00E94C12A0E949C
:104E40001E2B8091E20084608093E200089510920E
:104E50009B03089508950895089542E061EC81E070
:104E60000E943D2A42E261EC84E00E943D2A42E237
:104E700061EC82E00E943D2A42E260EC83E00C9407
:104E80003D2A80919E03833009F461C030F4813063
:104E9000D1F1823009F49DC008958A3009F489C0A7
:104EA0008B3009F46FC0893009F050C080919D03A8
:104EB000813209F04BC08091A1039091A203009729
:104EC00019F0029709F042C08091E800877F809333
:104ED000E8008091E80082FF35C09091F300809156
:104EE000F200029729F48091F1008B7F813021F448
:104EF0008091F100809354038091E8008B77809338
:104F0000E8000C94712A80919D03813AF9F4809114
:104F1000E800877F8093E8008091A1039091A2032D
:104F2000892B61F460E284E393E070E00E948029C1
:104F30008091E8008B778093E800089560E090E02E
:104F400080E0F3CF80919C038111C3CF08958091BD
:104F50009D03813AD9F78091A1039091A203892BF7
:104F6000A9F78091E800877F8093E8008091E800AE
:104F700080FFFCCF809124018093F1008091E800B4
:104F80008E77BDCF80919D03813201F78091A1037F
:104F90009091A203892BD1F68091E800877F8093BE
:104FA000E8000E94712A80919F03809324010C9451
:104FB000951D80919D03813249F68091E800877F9D
:104FC0008093E8000E94712A8091A003809355038A
:104FD000089580919D03813A09F0B8CF8091E8004F
:104FE000877F8093E8008091E80080FFFCCF80916C
:104FF0005503C2CFCDB7DEB7A0970FB6F894DEBF8A
:105000000FBECDBF84B7877F84BF0FB6F894A89535
:1050100080916000886180936000109260000FBEF4
:1050200080E890E00FB6F89480936100909361005F
:105030000FBE0E9464190E94C12A0E941E2B8091FB
:10504000E20084608093E20078940E94A72D0E9481
:1050500074198AE191E00E94EC1813E080919C039E
:105060008530C9F00E94821980919C038430D1F070
:105070000E9472190E947319F1CF0E943F258091FE
:105080009A03882341F00E947125882321F00E9411
:10509000CC280E94951D80919C03853071F30E945D
:1050A0008B25E0CF1093E9008091E80082FFE0CFEC
:1050B0008091E80090E085FF09C050E040E060E2A8
:1050C00070E0CE0101960E94312991E08091E800C4
:1050D0008B778093E800992359F260E2CE01019624
:1050E0000E948614C5CF0C947528292F33272330AE
:1050F000310521F168F42130310509F443C0223033
:10510000310509F444C090E080E030E020E026C0A2
:105110002132310551F122323105A9F76330710591
:1051200090F7FB01EE0FFF1FEB54FE4F2081318102
:105130006E547E4FFB01808190E010C09927813032
:10514000910581F0009729F00297E9F6E6EDF6E087
:1051500002C0E6EFF6E0849190E09F01FA0131830E
:1051600020830895EAEEF6E0F6CF6330710558F635
:10517000660F771FFB01E554FE4F2081318189E0E6
:1051800090E0ECCF82E190E025E537E0E7CF8BE5DA
:1051900090E02AEF36E0E2CF80E189BD82E189BD6F
:1051A00009B400FEFDCF8091D8008F7D8093D80098
:1051B0008091E00082608093E0008091E00081FDBA
:1051C000FCCF0895AF92BF92CF92DF92FF920F93E0
:1051D0001F93CF93DF936C01EB018A010E94902A09
:1051E000F82E811123C00115110539F0F8018081D5
:1051F0009181C81BD90BC80ED91EB12CA12C2097A8
:10520000A9F08091E80085FD22C08091E8008E77AA
:105210008093E80001151105A1F0F80180819181CA
:10522000A80EB91EB182A08285E0F82E8F2DDF91E5
:10523000CF911F910F91FF90DF90CF90BF90AF90D3
:1052400008950E94902A8823D1F2F82EEFCFF6011C
:1052500081916F018093F1002197FFEFAF1ABF0A90
:10526000CECFAF92BF92CF92DF92FF920F931F9358
:10527000CF93DF936C01EB018A010E94902AF82EF4
:10528000811123C00115110539F0F8018081918148
:10529000C81BD90BC80ED91EB12CA12C2097A9F080
:1052A0008091E80085FD22C08091E8008B77809393
:1052B000E80001151105A1F0F80180819181A80E87
:1052C000B91EB182A08285E0F82E8F2DDF91CF919B
:1052D0001F910F91FF90DF90CF90BF90AF900895F6
:1052E0000E94902A8823D1F2F82EEFCF8091F1000E
:1052F000F60181936F012197FFEFAF1ABF0ACECF5E
:10530000FC018091A3039091A40386179707A0F056
:105310006115710529F49091E8009E779093E8005B
:1053200090E06115710551F4911108C08091E80079
:1053300082FF34C080E00895BC01F2CF80919C03CD
:105340008823C1F18530C1F18091E80083FD30C030
:105350008091E80082FDEACF8091E80080FFE1CFF4
:105360008091F3002091F200382F6115710519F03A
:105370002830310558F091E02830310509F090E0EF
:105380002091E8002E772093E800CBCF8191809385
:10539000F100615071092F5F3F4FE7CF80919C036F
:1053A000882341F0853041F08091E80083FFBECF33
:1053B00081E0089582E0089583E00895FC018091E2
:1053C000A3039091A40386179707A0F061157105B8
:1053D00029F48091E8008E778093E80090E06115D1
:1053E000710551F4911108C08091E80082FF35C029
:1053F00080E00895BC01F2CF80919C038823C9F11D
:105400008530C9F18091E80083FD31C08091E800CA
:1054100082FDEACF8091E80080FFE1CF8091F30028
:105420002091F200382F6115710519F028303105EF
:1054300058F091E02830310509F090E08091E800C3
:105440008E778093E800CBCF84918093F1003196E2
:10545000615071092F5F3F4FE6CF80919C038823F5
:1054600041F0853041F08091E80083FFBDCF81E0BD
:10547000089582E0089583E00895982F973028F0EA
:105480008F708093E90081E008959093E900242FC4
:10549000762F50E0981731F07091EC002091ED00DC
:1054A0005091F00021FD02C09F5FE8CF3091EB00EA
:1054B0003E7F3093EB003091ED003D7F3093ED0067
:1054C0003091EB0031603093EB007093EC0020934F
:1054D000ED005093F0002091EE0027FDE5CF80E035
:1054E000089580919D0387FF13C08091E80082FF9B
:1054F00006C08091E8008B778093E80004C080911B
:105500009C038111F2CF089580919C038823D9F3E5
:105510008091E80080FFF8CF8091E8008E77ECCF93
:105520002091E4003091E50095E6A9012091EC007E
:10553000822F817020FF06C08091E80080FF06C0A6
:1055400080E008952091E80022FD1AC080919C031C
:10555000882389F0853089F08091EB0085FD0FC0AC
:105560002091E4003091E50042175307F9F2915081
:10557000E1F684E0089582E0089583E0089581E0F3
:1055800008950E942F2B0E94372BE0EEF0E08081DF
:1055900081608083E8EDF0E080818F77808319BCA3
:1055A000A7EDB0E08C918E7F8C9380818F7E80837D
:1055B00010929B0308950F931F93CF93DF930E9444
:1055C0002F2B0E94372BC8EDD0E088818F778883FE
:1055D00088818068888388818F7D888319BC109238
:1055E0009C031092980310929A031092990300EE74
:1055F00010E0F80180818B7F8083888181608883BF
:1056000042E060E080E00E943D2AE1EEF0E080812F
:105610008E7F8083E2EEF0E08081816080838081F4
:1056200088608083F80180818E7F8083888180619B
:105630008883DF91CF911F910F910895E8EDF0E0FD
:1056400080818F7E8083E7EDF0E0808181608083C0
:1056500084E082BF81E080939B030C94DB2AE8ED19
:10566000F0E080818E7F80831092E2000895109296
:10567000DA001092E10008951F920F920FB60F9278
:1056800011242F933F934F935F936F937F938F9347
:105690009F93AF93BF93EF93FF938091E10082FFBD
:1056A0000BC08091E20082FF07C08091E1008B7FF8
:1056B0008093E1000E94A62D8091DA0080FF19C03E
:1056C0008091D80080FF15C08091DA008E7F809392
:1056D000DA008091D90080FF96C080E189BD82E127
:1056E00089BD09B400FEFDCF81E080939C030E9438
:1056F00019278091E10080FF19C08091E20080FFAE
:1057000015C08091E2008E7F8093E2008091E200DC
:1057100080618093E2008091D80080628093D800FD
:1057200019BC85E080939C030E942B278091E100A7
:1057300084FF2BC08091E20084FF27C080E189BDF7
:1057400082E189BD89B5982F917080FFFBCF809150
:10575000D8008F7D8093D8008091E1008F7E809368
:10576000E1008091E2008F7E8093E2008091E20070
:1057700081608093E20080919803882309F449C0F6
:1057800084E080939C030E942C278091E10083FF9A
:1057900029C08091E20083FF25C08091E100877FCE
:1057A0008093E10082E080939C03109298038091A3
:1057B000E1008E7F8093E1008091E2008E7F8093F4
:1057C000E2008091E20080618093E20042E060E0CC
:1057D00080E00E943D2A8091F00088608093F00074
:1057E0000E942A27FF91EF91BF91AF919F918F91D6
:1057F0007F916F915F914F913F912F910F900FBECD
:105800000F901F90189519BC10929C030E94272797
:1058100070CF8091E30087FD93E090939C03B3CF1A
:105820001F920F920FB60F9211242F933F934F9315
:105830005F936F937F938F939F93AF93BF93CF9318
:10584000DF93EF93FF93D091E900DF708091EC003C
:10585000C82FC17080FDC0E81092E9008091F0006F
:10586000877F8093F00078940E94542C1092E90076
:105870008091F00088608093F000CD2BCF70C093B2
:10588000E900FF91EF91DF91CF91BF91AF919F918F
:105890008F917F916F915F914F913F912F910F90D9
:1058A0000FBE0F901F9018951F93CF93DF93CDB726
:1058B000DEB7AA970FB6F894DEBF0FBECDBF8DE955
:1058C00093E02091F100FC012193CF01F3E0853AB0
:1058D0009F07B9F70E9441278091E80083FF1EC10E
:1058E00080919D0390919E039A3008F017C1E92F93
:1058F000F0E0E553F04D0C94262E803899F0823874
:1059000009F00CC18091A1038F70873008F006C1A7
:105910008093E9008091EB0085FB882780F9109245
:10592000E90006C08091990390919A0391118260D9
:105930009091E800977F9093E8008093F100109297
:10594000F1008091E8008E77E5C0882309F4D3C088
:10595000823009F0E3C080919F038111D6C080910D
:10596000A1038F702FEF280F263008F0D7C0809347
:10597000E9002091EB0020FFC8C0933031F4809102
:10598000EB0080628093EB00C0C09091EB009061CF
:105990009093EB0021E030E001C0220F8A95EAF7F6
:1059A0002093EA001092EA008091EB008860EACF31
:1059B0008111B4C010919F031F778091E30080781C
:1059C000812B8093E3008091E800877F8093E8003B
:1059D0000E94712A8091E80080FFFCCF8091E30053
:1059E00080688093E30082E0111183E080939C0340
:1059F00095C08058823008F091C080919F039091AB
:105A0000A0038C3D23E09207A1F583E08A838AE21C
:105A100089834FB7F894DE01139620E03EE051E20F
:105A2000E32FF0E050935700E49120FF03C0E2958C
:105A3000EF703F5FEF708E2F90E0EA30C0F0C796B6
:105A40008D939D932F5F243159F74FBF8091E800CC
:105A5000877F8093E8006AE270E0CE0101960E94A1
:105A600080298091E8008B778093E80057C0C0962A
:105A7000E7CF6091A1037091A203AE014F5F5F4F2A
:105A80000E947328BC01892B09F448C09091E8005A
:105A9000977F9093E80089819A810E94DE29E1CF67
:105AA0008038E1F58091E800877F8093E80080915D
:105AB00098038093F10045CF811130C090919F03EE
:105AC000923060F58091E800877F8093E8009093A2
:105AD00098030E94712A80919803882311F084E032
